{
  "address": "0x0574d558EA0d45ECce80D181aa54feeF6C379FA7",
  "abi": [
    {
      "inputs": [
        {
          "internalType": "string[]",
          "name": "_tokenSymbols",
          "type": "string[]"
        },
        {
          "internalType": "address[]",
          "name": "_tokenAddresses",
          "type": "address[]"
        },
        {
          "internalType": "string",
          "name": "_network",
          "type": "string"
        },
        {
          "internalType": "address",
          "name": "_routerAddress",
          "type": "address"
        },
        {
          "internalType": "string",
          "name": "_baseToken",
          "type": "string"
        },
        {
          "internalType": "string",
          "name": "_baseERC20",
          "type": "string"
        }
      ],
      "stateMutability": "nonpayable",
      "type": "constructor"
    },
    {
      "stateMutability": "payable",
      "type": "fallback"
    },
    {
      "inputs": [],
      "name": "baseERC20",
      "outputs": [
        {
          "internalType": "string",
          "name": "",
          "type": "string"
        }
      ],
      "stateMutability": "view",
      "type": "function"
    },
    {
      "inputs": [],
      "name": "baseToken",
      "outputs": [
        {
          "internalType": "string",
          "name": "",
          "type": "string"
        }
      ],
      "stateMutability": "view",
      "type": "function"
    },
    {
      "inputs": [
        {
          "internalType": "address",
          "name": "_toToken",
          "type": "address"
        },
        {
          "internalType": "uint256",
          "name": "_amount",
          "type": "uint256"
        }
      ],
      "name": "calculateNeededETHAmount",
      "outputs": [
        {
          "internalType": "uint256",
          "name": "",
          "type": "uint256"
        }
      ],
      "stateMutability": "view",
      "type": "function"
    },
    {
      "inputs": [],
      "name": "dexRouterAddress",
      "outputs": [
        {
          "internalType": "address",
          "name": "",
          "type": "address"
        }
      ],
      "stateMutability": "view",
      "type": "function"
    },
    {
      "inputs": [],
      "name": "network",
      "outputs": [
        {
          "internalType": "string",
          "name": "",
          "type": "string"
        }
      ],
      "stateMutability": "view",
      "type": "function"
    },
    {
      "inputs": [
        {
          "internalType": "address",
          "name": "_toToken",
          "type": "address"
        },
        {
          "internalType": "uint256",
          "name": "_amount",
          "type": "uint256"
        }
      ],
      "name": "swap",
      "outputs": [],
      "stateMutability": "payable",
      "type": "function"
    },
    {
      "inputs": [
        {
          "internalType": "string",
          "name": "",
          "type": "string"
        }
      ],
      "name": "tokenAddresses",
      "outputs": [
        {
          "internalType": "address",
          "name": "",
          "type": "address"
        }
      ],
      "stateMutability": "view",
      "type": "function"
    },
    {
      "stateMutability": "payable",
      "type": "receive"
    }
  ],
  "transactionHash": "0x130171ab6b2c80a276006af01694924f5a6c85cec2839bea0a758a5f84915e98",
  "args": [
    [
      "BCT",
      "NCT",
      "mcUSD",
      "cUSD",
      "CELO",
      "WETH",
      "USDC"
    ],
    [
      "0x0CcB0071e8B8B716A2a5998aB4d97b83790873Fe",
      "0x02De4766C272abc10Bc88c220D214A26960a7e92",
      "0xE273Ad7ee11dCfAA87383aD5977EE1504aC07568",
      "0x765DE816845861e75A25fCA122bb6898B8B1282a",
      "0x471EcE3750Da237f93B8E339c536989b8978a438",
      "0x122013fd7dF1C6F636a5bb8f03108E876548b455",
      "0xef4229c8c3250C675F21BCefa42f58EfbfF6002a"
    ],
    "celo",
    "0x7D28570135A2B1930F331c507F65039D4937f66c",
    "mcUSD",
    "cUSD"
  ],
  "numDeployments": 4,
  "solcInputHash": "63b809a1b9369c0674b8f9753772f776",
  "bytecode": "0x60806040523480156200001157600080fd5b50604051620011c3380380620011c38339810160408190526200003491620003ab565b60005b8651811015620000e8578581815181106200006257634e487b7160e01b600052603260045260246000fd5b602002602001015160048883815181106200008d57634e487b7160e01b600052603260045260246000fd5b6020026020010151604051620000a4919062000497565b90815260405190819003602001902080546001600160a01b03929092166001600160a01b0319909216919091179055620000e06001826200050e565b905062000037565b600080546001600160a01b0319166001600160a01b0386161790558451620001189060019060208801906200016d565b50600080546001600160a01b0319166001600160a01b0386161790558251620001499060029060208601906200016d565b5081516200015f9060039060208501906200016d565b5050505050505050620005b9565b8280546200017b9062000566565b90600052602060002090601f0160209004810192826200019f5760008555620001ea565b82601f10620001ba57805160ff1916838001178555620001ea565b82800160010185558215620001ea579182015b82811115620001ea578251825591602001919060010190620001cd565b50620001f8929150620001fc565b5090565b5b80821115620001f85760008155600101620001fd565b80516001600160a01b03811681146200022b57600080fd5b919050565b600082601f83011262000241578081fd5b815160206200025a6200025483620004e8565b620004b5565b80838252828201915082860187848660051b89010111156200027a578586fd5b855b85811015620002a357620002908262000213565b845292840192908401906001016200027c565b5090979650505050505050565b600082601f830112620002c1578081fd5b81516020620002d46200025483620004e8565b80838252828201915082860187848660051b8901011115620002f4578586fd5b855b85811015620002a35781516001600160401b0381111562000315578788fd5b620003258a87838c010162000339565b8552509284019290840190600101620002f6565b600082601f8301126200034a578081fd5b81516001600160401b03811115620003665762000366620005a3565b6200037b601f8201601f1916602001620004b5565b81815284602083860101111562000390578283fd5b620003a382602083016020870162000533565b949350505050565b60008060008060008060c08789031215620003c4578182fd5b86516001600160401b0380821115620003db578384fd5b620003e98a838b01620002b0565b97506020890151915080821115620003ff578384fd5b6200040d8a838b0162000230565b9650604089015191508082111562000423578384fd5b620004318a838b0162000339565b95506200044160608a0162000213565b9450608089015191508082111562000457578384fd5b620004658a838b0162000339565b935060a08901519150808211156200047b578283fd5b506200048a89828a0162000339565b9150509295509295509295565b60008251620004ab81846020870162000533565b9190910192915050565b604051601f8201601f191681016001600160401b0381118282101715620004e057620004e0620005a3565b604052919050565b60006001600160401b03821115620005045762000504620005a3565b5060051b60200190565b600082198211156200052e57634e487b7160e01b81526011600452602481fd5b500190565b60005b838110156200055057818101518382015260200162000536565b8381111562000560576000848401525b50505050565b600181811c908216806200057b57607f821691505b602082108114156200059d57634e487b7160e01b600052602260045260246000fd5b50919050565b634e487b7160e01b600052604160045260246000fd5b610bfa80620005c96000396000f3fe60806040526004361061006e5760003560e01c806397e5311c1161004b57806397e5311c14610125578063c55dae631461013a578063d004f0f71461014f578063e7f67fb11461016257005b80631109ec99146100775780636739afca146100aa578063935b13f6146100cc57005b3661007557005b005b34801561008357600080fd5b506100976100923660046107da565b610182565b6040519081526020015b60405180910390f35b3480156100b657600080fd5b506100bf610286565b6040516100a19190610a66565b3480156100d857600080fd5b5061010d6100e73660046108df565b80516020818301810180516004825292820191909301209152546001600160a01b031681565b6040516001600160a01b0390911681526020016100a1565b34801561013157600080fd5b506100bf610314565b34801561014657600080fd5b506100bf610321565b61007561015d3660046107da565b61032e565b34801561016e57600080fd5b5060005461010d906001600160a01b031681565b600080546040516001600160a01b039091169082906101c9906004906101aa906003906109cb565b908152604051908190036020019020546001600160a01b0316866105be565b90506000826001600160a01b0316631f00ca7486846040518363ffffffff1660e01b81526004016101fb929190610a99565b60006040518083038186803b15801561021357600080fd5b505afa158015610227573d6000803e3d6000fd5b505050506040513d6000823e601f3d908101601f1916820160405261024f9190810190610810565b90508060008151811061027257634e487b7160e01b600052603260045260246000fd5b602002602001015193505050505b92915050565b6001805461029390610b73565b80601f01602080910402602001604051908101604052809291908181526020018280546102bf90610b73565b801561030c5780601f106102e15761010080835404028352916020019161030c565b820191906000526020600020905b8154815290600101906020018083116102ef57829003601f168201915b505050505081565b6003805461029390610b73565b6002805461029390610b73565b600080546040516001600160a01b03909116919061037490600490610355906003906109cb565b908152604051908190036020019020546001600160a01b0316856105be565b90506000826001600160a01b031663fb3bdb4134868530426040518663ffffffff1660e01b81526004016103ab9493929190610aba565b6000604051808303818588803b1580156103c457600080fd5b505af11580156103d8573d6000803e3d6000fd5b50505050506040513d6000823e601f3d908101601f191682016040526104019190810190610810565b60405163a9059cbb60e01b8152336004820152602481018690529091506001600160a01b0386169063a9059cbb90604401602060405180830381600087803b15801561044c57600080fd5b505af1158015610460573d6000803e3d6000fd5b505050506040513d601f19601f8201168201806040525081019061048491906108b8565b50806000815181106104a657634e487b7160e01b600052603260045260246000fd5b60200260200101513411156105b7576000816000815181106104d857634e487b7160e01b600052603260045260246000fd5b6020026020010151346104eb9190610b20565b60408051600080825260208201928390529293503391849161050c916109af565b60006040518083038185875af1925050503d8060008114610549576040519150601f19603f3d011682016040523d82523d6000602084013e61054e565b606091505b50509050806105b45760405162461bcd60e51b815260206004820152602860248201527f4661696c656420746f2073656e6420737572706c757320455448206261636b206044820152673a37903ab9b2b91760c11b606482015260840160405180910390fd5b50505b5050505050565b6060600460026040516105d191906109cb565b908152604051908190036020019020546001600160a01b038381169116141561069857604080516002808252606082018352600092602083019080368337019050509050838160008151811061063757634e487b7160e01b600052603260045260246000fd5b60200260200101906001600160a01b031690816001600160a01b031681525050828160018151811061067957634e487b7160e01b600052603260045260246000fd5b6001600160a01b03909216602092830291909101909101529050610280565b600460036040516106a991906109cb565b908152604051908190036020019020546001600160a01b03838116911614156107d157600060035b6040519080825280602002602001820160405280156106fa578160200160208202803683370190505b509050838160008151811061071f57634e487b7160e01b600052603260045260246000fd5b60200260200101906001600160a01b031690816001600160a01b0316815250506004600260405161075091906109cb565b9081526040519081900360200190205481516001600160a01b03909116908290600190811061078f57634e487b7160e01b600052603260045260246000fd5b60200260200101906001600160a01b031690816001600160a01b031681525050828160028151811061067957634e487b7160e01b600052603260045260246000fd5b600060046106d1565b600080604083850312156107ec578182fd5b82356001600160a01b0381168114610802578283fd5b946020939093013593505050565b60006020808385031215610822578182fd5b825167ffffffffffffffff80821115610839578384fd5b818501915085601f83011261084c578384fd5b81518181111561085e5761085e610bae565b8060051b915061086f848301610aef565b8181528481019084860184860187018a1015610889578788fd5b8795505b838610156108ab57805183526001959095019491860191860161088d565b5098975050505050505050565b6000602082840312156108c9578081fd5b815180151581146108d8578182fd5b9392505050565b600060208083850312156108f1578182fd5b823567ffffffffffffffff80821115610908578384fd5b818501915085601f83011261091b578384fd5b81358181111561092d5761092d610bae565b61093f601f8201601f19168501610aef565b91508082528684828501011115610954578485fd5b80848401858401378101909201929092529392505050565b6000815180845260208085019450808401835b838110156109a45781516001600160a01b03168752958201959082019060010161097f565b509495945050505050565b600082516109c1818460208701610b43565b9190910192915050565b600080835482600182811c9150808316806109e757607f831692505b6020808410821415610a0757634e487b7160e01b87526022600452602487fd5b818015610a1b5760018114610a2c57610a58565b60ff19861689528489019650610a58565b60008a815260209020885b86811015610a505781548b820152908501908301610a37565b505084890196505b509498975050505050505050565b6020815260008251806020840152610a85816040850160208701610b43565b601f01601f19169190910160400192915050565b828152604060208201526000610ab2604083018461096c565b949350505050565b848152608060208201526000610ad3608083018661096c565b6001600160a01b03949094166040830152506060015292915050565b604051601f8201601f1916810167ffffffffffffffff81118282101715610b1857610b18610bae565b604052919050565b600082821015610b3e57634e487b7160e01b81526011600452602481fd5b500390565b60005b83811015610b5e578181015183820152602001610b46565b83811115610b6d576000848401525b50505050565b600181811c90821680610b8757607f821691505b60208210811415610ba857634e487b7160e01b600052602260045260246000fd5b50919050565b634e487b7160e01b600052604160045260246000fdfea2646970667358221220c5a92c6592f4e8148e02a2a8b609ebed14b5bcc2ea441f55656081818821587c64736f6c63430008040033",
  "devdoc": {
    "kind": "dev",
    "methods": {},
    "version": 1
  },
  "userdoc": {
    "kind": "user",
    "methods": {},
    "version": 1
  },
  "storageLayout": {
    "storage": [
      {
        "astId": 3540,
        "contract": "contracts/test/Swapper.sol:Swapper",
        "label": "dexRouterAddress",
        "offset": 0,
        "slot": "0",
        "type": "t_address"
      },
      {
        "astId": 3542,
        "contract": "contracts/test/Swapper.sol:Swapper",
        "label": "network",
        "offset": 0,
        "slot": "1",
        "type": "t_string_storage"
      },
      {
        "astId": 3544,
        "contract": "contracts/test/Swapper.sol:Swapper",
        "label": "baseToken",
        "offset": 0,
        "slot": "2",
        "type": "t_string_storage"
      },
      {
        "astId": 3546,
        "contract": "contracts/test/Swapper.sol:Swapper",
        "label": "baseERC20",
        "offset": 0,
        "slot": "3",
        "type": "t_string_storage"
      },
      {
        "astId": 3550,
        "contract": "contracts/test/Swapper.sol:Swapper",
        "label": "tokenAddresses",
        "offset": 0,
        "slot": "4",
        "type": "t_mapping(t_string_memory_ptr,t_address)"
      }
    ],
    "types": {
      "t_address": {
        "encoding": "inplace",
        "label": "address",
        "numberOfBytes": "20"
      },
      "t_mapping(t_string_memory_ptr,t_address)": {
        "encoding": "mapping",
        "key": "t_string_memory_ptr",
        "label": "mapping(string => address)",
        "numberOfBytes": "32",
        "value": "t_address"
      },
      "t_string_memory_ptr": {
        "encoding": "bytes",
        "label": "string",
        "numberOfBytes": "32"
      },
      "t_string_storage": {
        "encoding": "bytes",
        "label": "string",
        "numberOfBytes": "32"
      }
    }
  }
}