{
  "address": "0x907d9D7dD0107be9C788ccc6d64d0dfDaaB5E632",
  "abi": [
    {
      "inputs": [
        {
          "internalType": "string[]",
          "name": "_tokenSymbols",
          "type": "string[]"
        },
        {
          "internalType": "address[]",
          "name": "_tokenAddresses",
          "type": "address[]"
        },
        {
          "internalType": "address",
          "name": "_routerAddress",
          "type": "address"
        },
        {
          "internalType": "string",
          "name": "_baseToken",
          "type": "string"
        },
        {
          "internalType": "string",
          "name": "_baseERC20",
          "type": "string"
        }
      ],
      "stateMutability": "nonpayable",
      "type": "constructor"
    },
    {
      "stateMutability": "payable",
      "type": "fallback"
    },
    {
      "inputs": [],
      "name": "baseERC20",
      "outputs": [
        {
          "internalType": "string",
          "name": "",
          "type": "string"
        }
      ],
      "stateMutability": "view",
      "type": "function"
    },
    {
      "inputs": [],
      "name": "baseToken",
      "outputs": [
        {
          "internalType": "string",
          "name": "",
          "type": "string"
        }
      ],
      "stateMutability": "view",
      "type": "function"
    },
    {
      "inputs": [
        {
          "internalType": "address",
          "name": "_toToken",
          "type": "address"
        },
        {
          "internalType": "uint256",
          "name": "_amount",
          "type": "uint256"
        }
      ],
      "name": "calculateNeededETHAmount",
      "outputs": [
        {
          "internalType": "uint256",
          "name": "",
          "type": "uint256"
        }
      ],
      "stateMutability": "view",
      "type": "function"
    },
    {
      "inputs": [],
      "name": "dexRouterAddress",
      "outputs": [
        {
          "internalType": "address",
          "name": "",
          "type": "address"
        }
      ],
      "stateMutability": "view",
      "type": "function"
    },
    {
      "inputs": [
        {
          "internalType": "address",
          "name": "_toToken",
          "type": "address"
        },
        {
          "internalType": "uint256",
          "name": "_amount",
          "type": "uint256"
        }
      ],
      "name": "swap",
      "outputs": [],
      "stateMutability": "payable",
      "type": "function"
    },
    {
      "inputs": [
        {
          "internalType": "string",
          "name": "",
          "type": "string"
        }
      ],
      "name": "tokenAddresses",
      "outputs": [
        {
          "internalType": "address",
          "name": "",
          "type": "address"
        }
      ],
      "stateMutability": "view",
      "type": "function"
    },
    {
      "stateMutability": "payable",
      "type": "receive"
    }
  ],
  "transactionHash": "0x6d21086f07ba6695dbf8238a58c38a55a92c453f6c556f925f070fe9b25982d4",
  "args": [
    [
      "BCT",
      "NCT",
      "mcUSD",
      "cUSD",
      "CELO",
      "WETH",
      "USDC"
    ],
    [
      "0x0CcB0071e8B8B716A2a5998aB4d97b83790873Fe",
      "0x02De4766C272abc10Bc88c220D214A26960a7e92",
      "0xE273Ad7ee11dCfAA87383aD5977EE1504aC07568",
      "0x765DE816845861e75A25fCA122bb6898B8B1282a",
      "0x471EcE3750Da237f93B8E339c536989b8978a438",
      "0x122013fd7dF1C6F636a5bb8f03108E876548b455",
      "0xef4229c8c3250C675F21BCefa42f58EfbfF6002a"
    ],
    "0x7D28570135A2B1930F331c507F65039D4937f66c",
    "mcUSD",
    "cUSD"
  ],
  "numDeployments": 6,
  "solcInputHash": "61bdd06204df6446397fa29fd2bbe22e",
  "bytecode": "0x60806040523480156200001157600080fd5b506040516200112a3803806200112a8339810160408190526200003491620002f0565b60005b8551811015620000e8578481815181106200006257634e487b7160e01b600052603260045260246000fd5b602002602001015160038783815181106200008d57634e487b7160e01b600052603260045260246000fd5b6020026020010151604051620000a4919062000438565b90815260405190819003602001902080546001600160a01b03929092166001600160a01b0319909216919091179055620000e0600182620004af565b905062000037565b600080546001600160a01b0319166001600160a01b0386161790558251620001189060019060208601906200013b565b5081516200012e9060029060208501906200013b565b505050505050506200055a565b828054620001499062000507565b90600052602060002090601f0160209004810192826200016d5760008555620001b8565b82601f106200018857805160ff1916838001178555620001b8565b82800160010185558215620001b8579182015b82811115620001b85782518255916020019190600101906200019b565b50620001c6929150620001ca565b5090565b5b80821115620001c65760008155600101620001cb565b80516001600160a01b0381168114620001f957600080fd5b919050565b600082601f8301126200020f578081fd5b8151602062000228620002228362000489565b62000456565b80838252828201915082860187848660051b890101111562000248578586fd5b855b8581101562000271576200025e82620001e1565b845292840192908401906001016200024a565b5090979650505050505050565b600082601f8301126200028f578081fd5b81516001600160401b03811115620002ab57620002ab62000544565b620002c0601f8201601f191660200162000456565b818152846020838601011115620002d5578283fd5b620002e8826020830160208701620004d4565b949350505050565b600080600080600060a0868803121562000308578081fd5b85516001600160401b03808211156200031f578283fd5b818801915088601f83011262000333578283fd5b815162000344620002228262000489565b80828252602082019150602085018c60208560051b880101111562000367578687fd5b865b84811015620003a95781518681111562000381578889fd5b620003928f6020838b01016200027e565b855250602093840193919091019060010162000369565b505060208b01519099509350505080821115620003c4578283fd5b620003d289838a01620001fe565b9550620003e260408901620001e1565b94506060880151915080821115620003f8578283fd5b6200040689838a016200027e565b935060808801519150808211156200041c578283fd5b506200042b888289016200027e565b9150509295509295909350565b600082516200044c818460208701620004d4565b9190910192915050565b604051601f8201601f191681016001600160401b038111828210171562000481576200048162000544565b604052919050565b60006001600160401b03821115620004a557620004a562000544565b5060051b60200190565b60008219821115620004cf57634e487b7160e01b81526011600452602481fd5b500190565b60005b83811015620004f1578181015183820152602001620004d7565b8381111562000501576000848401525b50505050565b600181811c908216806200051c57607f821691505b602082108114156200053e57634e487b7160e01b600052602260045260246000fd5b50919050565b634e487b7160e01b600052604160045260246000fd5b610bc0806200056a6000396000f3fe6080604052600436106100565760003560e01c80631109ec991461005f578063935b13f61461009257806397e5311c146100eb578063c55dae631461010d578063d004f0f714610122578063e7f67fb11461013557005b3661005d57005b005b34801561006b57600080fd5b5061007f61007a3660046107a0565b610155565b6040519081526020015b60405180910390f35b34801561009e57600080fd5b506100d36100ad3660046108a5565b80516020818301810180516003825292820191909301209152546001600160a01b031681565b6040516001600160a01b039091168152602001610089565b3480156100f757600080fd5b50610100610259565b6040516100899190610a2c565b34801561011957600080fd5b506101006102e7565b61005d6101303660046107a0565b6102f4565b34801561014157600080fd5b506000546100d3906001600160a01b031681565b600080546040516001600160a01b0390911690829061019c9060039061017d90600290610991565b908152604051908190036020019020546001600160a01b031686610584565b90506000826001600160a01b0316631f00ca7486846040518363ffffffff1660e01b81526004016101ce929190610a5f565b60006040518083038186803b1580156101e657600080fd5b505afa1580156101fa573d6000803e3d6000fd5b505050506040513d6000823e601f3d908101601f1916820160405261022291908101906107d6565b90508060008151811061024557634e487b7160e01b600052603260045260246000fd5b602002602001015193505050505b92915050565b6002805461026690610b39565b80601f016020809104026020016040519081016040528092919081815260200182805461029290610b39565b80156102df5780601f106102b4576101008083540402835291602001916102df565b820191906000526020600020905b8154815290600101906020018083116102c257829003601f168201915b505050505081565b6001805461026690610b39565b600080546040516001600160a01b03909116919061033a9060039061031b90600290610991565b908152604051908190036020019020546001600160a01b031685610584565b90506000826001600160a01b031663fb3bdb4134868530426040518663ffffffff1660e01b81526004016103719493929190610a80565b6000604051808303818588803b15801561038a57600080fd5b505af115801561039e573d6000803e3d6000fd5b50505050506040513d6000823e601f3d908101601f191682016040526103c791908101906107d6565b60405163a9059cbb60e01b8152336004820152602481018690529091506001600160a01b0386169063a9059cbb90604401602060405180830381600087803b15801561041257600080fd5b505af1158015610426573d6000803e3d6000fd5b505050506040513d601f19601f8201168201806040525081019061044a919061087e565b508060008151811061046c57634e487b7160e01b600052603260045260246000fd5b602002602001015134111561057d5760008160008151811061049e57634e487b7160e01b600052603260045260246000fd5b6020026020010151346104b19190610ae6565b6040805160008082526020820192839052929350339184916104d291610975565b60006040518083038185875af1925050503d806000811461050f576040519150601f19603f3d011682016040523d82523d6000602084013e610514565b606091505b505090508061057a5760405162461bcd60e51b815260206004820152602860248201527f4661696c656420746f2073656e6420737572706c757320455448206261636b206044820152673a37903ab9b2b91760c11b606482015260840160405180910390fd5b50505b5050505050565b6060600360016040516105979190610991565b908152604051908190036020019020546001600160a01b038381169116141561065e5760408051600280825260608201835260009260208301908036833701905050905083816000815181106105fd57634e487b7160e01b600052603260045260246000fd5b60200260200101906001600160a01b031690816001600160a01b031681525050828160018151811061063f57634e487b7160e01b600052603260045260246000fd5b6001600160a01b03909216602092830291909101909101529050610253565b6003600260405161066f9190610991565b908152604051908190036020019020546001600160a01b038381169116141561079757600060035b6040519080825280602002602001820160405280156106c0578160200160208202803683370190505b50905083816000815181106106e557634e487b7160e01b600052603260045260246000fd5b60200260200101906001600160a01b031690816001600160a01b031681525050600360016040516107169190610991565b9081526040519081900360200190205481516001600160a01b03909116908290600190811061075557634e487b7160e01b600052603260045260246000fd5b60200260200101906001600160a01b031690816001600160a01b031681525050828160028151811061063f57634e487b7160e01b600052603260045260246000fd5b60006004610697565b600080604083850312156107b2578182fd5b82356001600160a01b03811681146107c8578283fd5b946020939093013593505050565b600060208083850312156107e8578182fd5b825167ffffffffffffffff808211156107ff578384fd5b818501915085601f830112610812578384fd5b81518181111561082457610824610b74565b8060051b9150610835848301610ab5565b8181528481019084860184860187018a101561084f578788fd5b8795505b83861015610871578051835260019590950194918601918601610853565b5098975050505050505050565b60006020828403121561088f578081fd5b8151801515811461089e578182fd5b9392505050565b600060208083850312156108b7578182fd5b823567ffffffffffffffff808211156108ce578384fd5b818501915085601f8301126108e1578384fd5b8135818111156108f3576108f3610b74565b610905601f8201601f19168501610ab5565b9150808252868482850101111561091a578485fd5b80848401858401378101909201929092529392505050565b6000815180845260208085019450808401835b8381101561096a5781516001600160a01b031687529582019590820190600101610945565b509495945050505050565b60008251610987818460208701610b09565b9190910192915050565b600080835482600182811c9150808316806109ad57607f831692505b60208084108214156109cd57634e487b7160e01b87526022600452602487fd5b8180156109e157600181146109f257610a1e565b60ff19861689528489019650610a1e565b60008a815260209020885b86811015610a165781548b8201529085019083016109fd565b505084890196505b509498975050505050505050565b6020815260008251806020840152610a4b816040850160208701610b09565b601f01601f19169190910160400192915050565b828152604060208201526000610a786040830184610932565b949350505050565b848152608060208201526000610a996080830186610932565b6001600160a01b03949094166040830152506060015292915050565b604051601f8201601f1916810167ffffffffffffffff81118282101715610ade57610ade610b74565b604052919050565b600082821015610b0457634e487b7160e01b81526011600452602481fd5b500390565b60005b83811015610b24578181015183820152602001610b0c565b83811115610b33576000848401525b50505050565b600181811c90821680610b4d57607f821691505b60208210811415610b6e57634e487b7160e01b600052602260045260246000fd5b50919050565b634e487b7160e01b600052604160045260246000fdfea2646970667358221220ac035990e57f04c0df9c61ddc4f39576fd7879185c536718ed63fc677b50ee0b64736f6c63430008040033",
  "devdoc": {
    "kind": "dev",
    "methods": {},
    "version": 1
  },
  "userdoc": {
    "kind": "user",
    "methods": {},
    "version": 1
  },
  "storageLayout": {
    "storage": [
      {
        "astId": 1130,
        "contract": "contracts/test/Swapper.sol:Swapper",
        "label": "dexRouterAddress",
        "offset": 0,
        "slot": "0",
        "type": "t_address"
      },
      {
        "astId": 1132,
        "contract": "contracts/test/Swapper.sol:Swapper",
        "label": "baseToken",
        "offset": 0,
        "slot": "1",
        "type": "t_string_storage"
      },
      {
        "astId": 1134,
        "contract": "contracts/test/Swapper.sol:Swapper",
        "label": "baseERC20",
        "offset": 0,
        "slot": "2",
        "type": "t_string_storage"
      },
      {
        "astId": 1138,
        "contract": "contracts/test/Swapper.sol:Swapper",
        "label": "tokenAddresses",
        "offset": 0,
        "slot": "3",
        "type": "t_mapping(t_string_memory_ptr,t_address)"
      }
    ],
    "types": {
      "t_address": {
        "encoding": "inplace",
        "label": "address",
        "numberOfBytes": "20"
      },
      "t_mapping(t_string_memory_ptr,t_address)": {
        "encoding": "mapping",
        "key": "t_string_memory_ptr",
        "label": "mapping(string => address)",
        "numberOfBytes": "32",
        "value": "t_address"
      },
      "t_string_memory_ptr": {
        "encoding": "bytes",
        "label": "string",
        "numberOfBytes": "32"
      },
      "t_string_storage": {
        "encoding": "bytes",
        "label": "string",
        "numberOfBytes": "32"
      }
    }
  }
}