{
  "address": "0x7B99c68012F78f9D15BA9EA4121aB3e09914Be70",
  "abi": [
    {
      "inputs": [
        {
          "internalType": "address[][]",
          "name": "_paths",
          "type": "address[][]"
        },
        {
          "internalType": "address",
          "name": "_swapToken",
          "type": "address"
        }
      ],
      "stateMutability": "nonpayable",
      "type": "constructor"
    },
    {
      "stateMutability": "payable",
      "type": "fallback"
    },
    {
      "inputs": [
        {
          "internalType": "address",
          "name": "_toToken",
          "type": "address"
        },
        {
          "internalType": "uint256",
          "name": "_amount",
          "type": "uint256"
        }
      ],
      "name": "calculateNeededTokenAmount",
      "outputs": [
        {
          "internalType": "uint256",
          "name": "",
          "type": "uint256"
        }
      ],
      "stateMutability": "view",
      "type": "function"
    },
    {
      "inputs": [],
      "name": "dexRouterAddress",
      "outputs": [
        {
          "internalType": "address",
          "name": "",
          "type": "address"
        }
      ],
      "stateMutability": "view",
      "type": "function"
    },
    {
      "inputs": [
        {
          "internalType": "address",
          "name": "",
          "type": "address"
        },
        {
          "internalType": "uint256",
          "name": "",
          "type": "uint256"
        }
      ],
      "name": "eligibleSwapPaths",
      "outputs": [
        {
          "internalType": "address",
          "name": "",
          "type": "address"
        }
      ],
      "stateMutability": "view",
      "type": "function"
    },
    {
      "inputs": [
        {
          "internalType": "address",
          "name": "_toToken",
          "type": "address"
        },
        {
          "internalType": "uint256",
          "name": "_amount",
          "type": "uint256"
        }
      ],
      "name": "swap",
      "outputs": [],
      "stateMutability": "payable",
      "type": "function"
    },
    {
      "inputs": [],
      "name": "swapToken",
      "outputs": [
        {
          "internalType": "address",
          "name": "",
          "type": "address"
        }
      ],
      "stateMutability": "view",
      "type": "function"
    },
    {
      "stateMutability": "payable",
      "type": "receive"
    }
  ],
  "transactionHash": "0xf1fb84583ab525e65d93b82f5a19011282acb89be74860c103024602a9156be0",
  "args": [
    [
      [
        "0x918146359264c492bd6934071c6bd31c854edbc3"
      ],
      [
        "0x765DE816845861e75A25fCA122bb6898B8B1282a",
        "0x918146359264c492bd6934071c6bd31c854edbc3"
      ],
      [
        "0x471EcE3750Da237f93B8E339c536989b8978a438",
        "0x765DE816845861e75A25fCA122bb6898B8B1282a",
        "0x918146359264c492bd6934071c6bd31c854edbc3"
      ],
      [
        "0x122013fd7dF1C6F636a5bb8f03108E876548b455",
        "0x918146359264c492bd6934071c6bd31c854edbc3"
      ],
      [
        "0xef4229c8c3250C675F21BCefa42f58EfbfF6002a",
        "0x765DE816845861e75A25fCA122bb6898B8B1282a",
        "0x918146359264c492bd6934071c6bd31c854edbc3"
      ]
    ],
    "0x765DE816845861e75A25fCA122bb6898B8B1282a"
  ],
  "numDeployments": 1,
  "solcInputHash": "f3c3190be9976f5ec62ad026781263c6",
  "bytecode": "0x6080604052600080546001600160a01b031916737d28570135a2b1930f331c507f65039d4937f66c1790553480156200003757600080fd5b50604051620012ac380380620012ac8339810160408190526200005a91620001f6565b600280546001600160a01b0319166001600160a01b03831617905581516000905b808210156200014e57838281518110620000a557634e487b7160e01b600052603260045260246000fd5b602002602001015160016000868581518110620000d257634e487b7160e01b600052603260045260246000fd5b6020026020010151600081518110620000fb57634e487b7160e01b600052603260045260246000fd5b60200260200101516001600160a01b03166001600160a01b0316815260200190815260200160002090805190602001906200013892919062000158565b506200014660018362000392565b91506200007b565b50505050620003cd565b828054828255906000526020600020908101928215620001b0579160200282015b82811115620001b057825182546001600160a01b0319166001600160a01b0390911617825560209092019160019091019062000179565b50620001be929150620001c2565b5090565b5b80821115620001be5760008155600101620001c3565b80516001600160a01b0381168114620001f157600080fd5b919050565b6000806040838503121562000209578182fd5b82516001600160401b038082111562000220578384fd5b818501915085601f83011262000234578384fd5b81516200024b62000245826200036c565b62000339565b80828252602082019150602085018960208560051b88010111156200026e578788fd5b875b8481101562000318578151868111156200028857898afd5b8701603f81018c136200029957898afd5b6020810151620002ad62000245826200036c565b80828252602082019150604084018f60408560051b8701011115620002d0578d8efd5b8d94505b83851015620002fe57620002e881620001d9565b83526001949094019360209283019201620002d4565b508752505060209485019492909201915060010162000270565b505080965050505050506200033060208401620001d9565b90509250929050565b604051601f8201601f191681016001600160401b0381118282101715620003645762000364620003b7565b604052919050565b60006001600160401b03821115620003885762000388620003b7565b5060051b60200190565b60008219821115620003b257634e487b7160e01b81526011600452602481fd5b500190565b634e487b7160e01b600052604160045260246000fd5b610ecf80620003dd6000396000f3fe60806040526004361061004b5760003560e01c80631357b1131461005457806357c9d13614610091578063d004f0f7146100bf578063dc73e49c146100d2578063e7f67fb1146100f257005b3661005257005b005b34801561006057600080fd5b5061007461006f366004610c71565b610112565b6040516001600160a01b0390911681526020015b60405180910390f35b34801561009d57600080fd5b506100b16100ac366004610c71565b61014a565b604051908152602001610088565b6100526100cd366004610c71565b6102ec565b3480156100de57600080fd5b50600254610074906001600160a01b031681565b3480156100fe57600080fd5b50600054610074906001600160a01b031681565b6001602052816000526040600020818154811061012e57600080fd5b6000918252602090912001546001600160a01b03169150829050565b600080546002546001600160a01b0391821691839161016a911686610551565b80516040516307c0329d60e21b8152919250906000906001600160a01b03851690631f00ca74906101a19089908790600401610e0a565b60006040518083038186803b1580156101b957600080fd5b505afa1580156101cd573d6000803e3d6000fd5b505050506040513d6000823e601f3d908101601f191682016040526101f59190810190610ca7565b90508051821461023d5760405162461bcd60e51b815260206004820152600e60248201526d105c9c985e5cc81d5b995c5d585b60921b60448201526064015b60405180910390fd5b80610249600184610e60565b8151811061026757634e487b7160e01b600052603260045260246000fd5b602002602001015186146102b65760405162461bcd60e51b815260206004820152601660248201527509eeae8e0eae840c2dadeeadce840dad2e6dac2e8c6d60531b6044820152606401610234565b806000815181106102d757634e487b7160e01b600052603260045260246000fd5b60200260200101519450505050505b92915050565b600080546002546001600160a01b03918216929161030b911685610551565b90506000826001600160a01b031663fb3bdb4134868530426040518663ffffffff1660e01b81526004016103429493929190610e2b565b6000604051808303818588803b15801561035b57600080fd5b505af115801561036f573d6000803e3d6000fd5b50505050506040513d6000823e601f3d908101601f191682016040526103989190810190610ca7565b60405163a9059cbb60e01b8152336004820152602481018690529091506001600160a01b0386169063a9059cbb90604401602060405180830381600087803b1580156103e357600080fd5b505af11580156103f7573d6000803e3d6000fd5b505050506040513d601f19601f8201168201806040525081019061041b9190610d67565b508060008151811061043d57634e487b7160e01b600052603260045260246000fd5b602002602001015134111561054a5760008160008151811061046f57634e487b7160e01b600052603260045260246000fd5b6020026020010151346104829190610e60565b6040805160008082526020820192839052929350339184916104a391610dd1565b60006040518083038185875af1925050503d80600081146104e0576040519150601f19603f3d011682016040523d82523d6000602084013e6104e5565b606091505b50509050806105475760405162461bcd60e51b815260206004820152602860248201527f4661696c656420746f2073656e6420737572706c757320455448206261636b206044820152673a37903ab9b2b91760c11b6064820152608401610234565b50505b5050505050565b6001600160a01b0382166000908152600160208190526040909120546060918114806105de5750826001600160a01b031660016000866001600160a01b03166001600160a01b031681526020019081526020016000206001815481106105c757634e487b7160e01b600052603260045260246000fd5b6000918252602090912001546001600160a01b0316145b1561068d576040805160028082526060820183529091602083019080368337019050509150838260008151811061062557634e487b7160e01b600052603260045260246000fd5b60200260200101906001600160a01b031690816001600160a01b031681525050828260018151811061066757634e487b7160e01b600052603260045260246000fd5b60200260200101906001600160a01b031690816001600160a01b031681525050506102e6565b80600214806106ec57506001600160a01b03848116600090815260016020526040902080549185169160029081106106d557634e487b7160e01b600052603260045260246000fd5b6000918252602090912001546001600160a01b0316145b1561081a57604080516003808252608082019092529060208201606080368337019050509150838260008151811061073457634e487b7160e01b600052603260045260246000fd5b60200260200101906001600160a01b031690816001600160a01b03168152505060016000856001600160a01b03166001600160a01b0316815260200190815260200160002060018154811061079957634e487b7160e01b600052603260045260246000fd5b9060005260206000200160009054906101000a90046001600160a01b0316826001815181106107d857634e487b7160e01b600052603260045260246000fd5b60200260200101906001600160a01b031690816001600160a01b031681525050828260028151811061066757634e487b7160e01b600052603260045260246000fd5b806003148061087957506001600160a01b038481166000908152600160205260409020805491851691600390811061086257634e487b7160e01b600052603260045260246000fd5b6000918252602090912001546001600160a01b0316145b15610a325760408051600380825260808201909252906020820160608036833701905050915083826000815181106108c157634e487b7160e01b600052603260045260246000fd5b60200260200101906001600160a01b031690816001600160a01b03168152505060016000856001600160a01b03166001600160a01b0316815260200190815260200160002060018154811061092657634e487b7160e01b600052603260045260246000fd5b9060005260206000200160009054906101000a90046001600160a01b03168260018151811061096557634e487b7160e01b600052603260045260246000fd5b6001600160a01b039283166020918202929092018101919091529085166000908152600190915260409020805460029081106109b157634e487b7160e01b600052603260045260246000fd5b9060005260206000200160009054906101000a90046001600160a01b0316826002815181106109f057634e487b7160e01b600052603260045260246000fd5b60200260200101906001600160a01b031690816001600160a01b031681525050828260038151811061066757634e487b7160e01b600052603260045260246000fd5b60408051600480825260a0820190925290602082016080803683370190505091508382600081518110610a7557634e487b7160e01b600052603260045260246000fd5b60200260200101906001600160a01b031690816001600160a01b03168152505060016000856001600160a01b03166001600160a01b03168152602001908152602001600020600181548110610ada57634e487b7160e01b600052603260045260246000fd5b9060005260206000200160009054906101000a90046001600160a01b031682600181518110610b1957634e487b7160e01b600052603260045260246000fd5b6001600160a01b03928316602091820292909201810191909152908516600090815260019091526040902080546002908110610b6557634e487b7160e01b600052603260045260246000fd5b9060005260206000200160009054906101000a90046001600160a01b031682600281518110610ba457634e487b7160e01b600052603260045260246000fd5b6001600160a01b03928316602091820292909201810191909152908516600090815260019091526040902080546003908110610bf057634e487b7160e01b600052603260045260246000fd5b9060005260206000200160009054906101000a90046001600160a01b031682600381518110610c2f57634e487b7160e01b600052603260045260246000fd5b60200260200101906001600160a01b031690816001600160a01b031681525050828260048151811061066757634e487b7160e01b600052603260045260246000fd5b60008060408385031215610c83578182fd5b82356001600160a01b0381168114610c99578283fd5b946020939093013593505050565b60006020808385031215610cb9578182fd5b825167ffffffffffffffff80821115610cd0578384fd5b818501915085601f830112610ce3578384fd5b815181811115610cf557610cf5610e83565b8060051b604051601f19603f83011681018181108582111715610d1a57610d1a610e83565b604052828152858101935084860182860187018a1015610d38578788fd5b8795505b83861015610d5a578051855260019590950194938601938601610d3c565b5098975050505050505050565b600060208284031215610d78578081fd5b81518015158114610d87578182fd5b9392505050565b6000815180845260208085019450808401835b83811015610dc65781516001600160a01b031687529582019590820190600101610da1565b509495945050505050565b60008251815b81811015610df15760208186018101518583015201610dd7565b81811115610dff5782828501525b509190910192915050565b828152604060208201526000610e236040830184610d8e565b949350505050565b848152608060208201526000610e446080830186610d8e565b6001600160a01b03949094166040830152506060015292915050565b600082821015610e7e57634e487b7160e01b81526011600452602481fd5b500390565b634e487b7160e01b600052604160045260246000fdfea264697066735822122021e3d43cf8524ce8139eed6f7d48a47a7289fae4fd231efaa955faea50c172e364736f6c63430008040033",
  "devdoc": {
    "kind": "dev",
    "methods": {},
    "version": 1
  },
  "userdoc": {
    "kind": "user",
    "methods": {},
    "version": 1
  },
  "storageLayout": {
    "storage": [
      {
        "astId": 1131,
        "contract": "contracts/test/Swapper.sol:Swapper",
        "label": "dexRouterAddress",
        "offset": 0,
        "slot": "0",
        "type": "t_address"
      },
      {
        "astId": 1136,
        "contract": "contracts/test/Swapper.sol:Swapper",
        "label": "eligibleSwapPaths",
        "offset": 0,
        "slot": "1",
        "type": "t_mapping(t_address,t_array(t_address)dyn_storage)"
      },
      {
        "astId": 1138,
        "contract": "contracts/test/Swapper.sol:Swapper",
        "label": "swapToken",
        "offset": 0,
        "slot": "2",
        "type": "t_address"
      }
    ],
    "types": {
      "t_address": {
        "encoding": "inplace",
        "label": "address",
        "numberOfBytes": "20"
      },
      "t_array(t_address)dyn_storage": {
        "base": "t_address",
        "encoding": "dynamic_array",
        "label": "address[]",
        "numberOfBytes": "32"
      },
      "t_mapping(t_address,t_array(t_address)dyn_storage)": {
        "encoding": "mapping",
        "key": "t_address",
        "label": "mapping(address => address[])",
        "numberOfBytes": "32",
        "value": "t_array(t_address)dyn_storage"
      }
    }
  }
}