{
  "address": "0xa12A728656Fbc82dC25515b548b328E63B556572",
  "abi": [
    {
      "inputs": [
        {
          "internalType": "string[]",
          "name": "_tokenSymbols",
          "type": "string[]"
        },
        {
          "internalType": "address[]",
          "name": "_tokenAddresses",
          "type": "address[]"
        }
      ],
      "stateMutability": "nonpayable",
      "type": "constructor"
    },
    {
      "stateMutability": "payable",
      "type": "fallback"
    },
    {
      "inputs": [
        {
          "internalType": "address",
          "name": "_toToken",
          "type": "address"
        },
        {
          "internalType": "uint256",
          "name": "_amount",
          "type": "uint256"
        }
      ],
      "name": "calculateNeededETHAmount",
      "outputs": [
        {
          "internalType": "uint256",
          "name": "",
          "type": "uint256"
        }
      ],
      "stateMutability": "view",
      "type": "function"
    },
    {
      "inputs": [
        {
          "internalType": "address",
          "name": "_toToken",
          "type": "address"
        },
        {
          "internalType": "uint256",
          "name": "_amount",
          "type": "uint256"
        }
      ],
      "name": "swap",
      "outputs": [],
      "stateMutability": "payable",
      "type": "function"
    },
    {
      "inputs": [
        {
          "internalType": "string",
          "name": "",
          "type": "string"
        }
      ],
      "name": "tokenAddresses",
      "outputs": [
        {
          "internalType": "address",
          "name": "",
          "type": "address"
        }
      ],
      "stateMutability": "view",
      "type": "function"
    },
    {
      "inputs": [],
      "name": "ubeswapRouterAddress",
      "outputs": [
        {
          "internalType": "address",
          "name": "",
          "type": "address"
        }
      ],
      "stateMutability": "view",
      "type": "function"
    },
    {
      "stateMutability": "payable",
      "type": "receive"
    }
  ],
  "transactionHash": "0xc1782e82e2662c37b42ce5499b7b9eaae7c17a79d7502bc9d1f9682031c5c945",
  "args": [
    [
      "BCT",
      "NCT",
      "cUSD",
      "CELO"
    ],
    [
      "0x4c5f90C50Ca9F849bb75D93a393A4e1B6E68Accb",
      "0xfb60a08855389F3c0A66b29aB9eFa911ed5cbCB5",
      "0x874069Fa1Eb16D44d622F2e0Ca25eeA172369bC1",
      "0xF194afDf50B03e69Bd7D057c1Aa9e10c9954E4C9"
    ]
  ],
  "numDeployments": 1,
  "solcInputHash": "a562f5e3b9dc37720e7246996ba3cba0",
  "bytecode": "0x6080604052600080546001600160a01b03191673e3d8bd6aed4f159bc8000a9cd47cffdb95f961211790553480156200003757600080fd5b5060405162000d3b38038062000d3b8339810160408190526200005a91620001a3565b60005b82518110156200010e578181815181106200008857634e487b7160e01b600052603260045260246000fd5b60200260200101516001848381518110620000b357634e487b7160e01b600052603260045260246000fd5b6020026020010151604051620000ca9190620002da565b90815260405190819003602001902080546001600160a01b03929092166001600160a01b03199092169190911790556200010660018262000351565b90506200005d565b505050620003bf565b600082601f83011262000128578081fd5b81516020620001416200013b836200032b565b620002f8565b80838252828201915082860187848660051b890101111562000161578586fd5b855b85811015620001965781516001600160a01b038116811462000183578788fd5b8452928401929084019060010162000163565b5090979650505050505050565b6000806040808486031215620001b7578283fd5b83516001600160401b0380821115620001ce578485fd5b818601915086601f830112620001e2578485fd5b81516020620001f56200013b836200032b565b8083825282820191508286018b848660051b89010111156200021557898afd5b895b85811015620002a5578151878111156200022f578b8cfd5b8801603f81018e1362000240578b8cfd5b8581015188811115620002575762000257620003a9565b6200026b601f8201601f19168801620002f8565b8181528f8c8385010111156200027f578d8efd5b62000290828983018e860162000376565b86525050928401929084019060010162000217565b505091890151919750909450505080831115620002c0578384fd5b5050620002d08582860162000117565b9150509250929050565b60008251620002ee81846020870162000376565b9190910192915050565b604051601f8201601f191681016001600160401b0381118282101715620003235762000323620003a9565b604052919050565b60006001600160401b03821115620003475762000347620003a9565b5060051b60200190565b600082198211156200037157634e487b7160e01b81526011600452602481fd5b500190565b60005b838110156200039357818101518382015260200162000379565b83811115620003a3576000848401525b50505050565b634e487b7160e01b600052604160045260246000fd5b61096c80620003cf6000396000f3fe6080604052600436106100405760003560e01c80631109ec9914610049578063935b13f61461007c578063a7bfc894146100d5578063d004f0f7146100f557005b3661004757005b005b34801561005557600080fd5b50610069610064366004610668565b610108565b6040519081526020015b60405180910390f35b34801561008857600080fd5b506100bd61009736600461076d565b80516020818301810180516001825292820191909301209152546001600160a01b031681565b6040516001600160a01b039091168152602001610073565b3480156100e157600080fd5b506000546100bd906001600160a01b031681565b610047610103366004610668565b61020e565b6000805460405164635553444360d81b81526001600160a01b0390911690829061015190600190600501908152604051908190036020019020546001600160a01b0316866104a0565b90506000826001600160a01b0316631f00ca7486846040518363ffffffff1660e01b8152600401610183929190610876565b60006040518083038186803b15801561019b57600080fd5b505afa1580156101af573d6000803e3d6000fd5b505050506040513d6000823e601f3d908101601f191682016040526101d7919081019061069e565b9050806000815181106101fa57634e487b7160e01b600052603260045260246000fd5b602002602001015193505050505b92915050565b6000805460405164635553444360d81b81526001600160a01b03909116919061025690600190600501908152604051908190036020019020546001600160a01b0316856104a0565b90506000826001600160a01b031663fb3bdb4134868530426040518663ffffffff1660e01b815260040161028d9493929190610897565b6000604051808303818588803b1580156102a657600080fd5b505af11580156102ba573d6000803e3d6000fd5b50505050506040513d6000823e601f3d908101601f191682016040526102e3919081019061069e565b60405163a9059cbb60e01b8152336004820152602481018690529091506001600160a01b0386169063a9059cbb90604401602060405180830381600087803b15801561032e57600080fd5b505af1158015610342573d6000803e3d6000fd5b505050506040513d601f19601f820116820180604052508101906103669190610746565b508060008151811061038857634e487b7160e01b600052603260045260246000fd5b6020026020010151341115610499576000816000815181106103ba57634e487b7160e01b600052603260045260246000fd5b6020026020010151346103cd91906108fd565b6040805160008082526020820192839052929350339184916103ee9161083d565b60006040518083038185875af1925050503d806000811461042b576040519150601f19603f3d011682016040523d82523d6000602084013e610430565b606091505b50509050806104965760405162461bcd60e51b815260206004820152602860248201527f4661696c656420746f2073656e6420737572706c757320455448206261636b206044820152673a37903ab9b2b91760c11b606482015260840160405180910390fd5b50505b5050505050565b606060016040516104bc9064635553444360d81b815260050190565b908152604051908190036020019020546001600160a01b038381169116141561058357604080516002808252606082018352600092602083019080368337019050509050838160008151811061052257634e487b7160e01b600052603260045260246000fd5b60200260200101906001600160a01b031690816001600160a01b031681525050828160018151811061056457634e487b7160e01b600052603260045260246000fd5b6001600160a01b03909216602092830291909101909101529050610208565b604080516003808252608082019092526000916020820160608036833701905050905083816000815181106105c857634e487b7160e01b600052603260045260246000fd5b6001600160a01b0392831660209182029290920101526040805164635553444360d81b81526001600582018190529151908190036025019020548351921691839190811061062657634e487b7160e01b600052603260045260246000fd5b60200260200101906001600160a01b031690816001600160a01b031681525050828160028151811061056457634e487b7160e01b600052603260045260246000fd5b6000806040838503121561067a578182fd5b82356001600160a01b0381168114610690578283fd5b946020939093013593505050565b600060208083850312156106b0578182fd5b825167ffffffffffffffff808211156106c7578384fd5b818501915085601f8301126106da578384fd5b8151818111156106ec576106ec610920565b8060051b91506106fd8483016108cc565b8181528481019084860184860187018a1015610717578788fd5b8795505b8386101561073957805183526001959095019491860191860161071b565b5098975050505050505050565b600060208284031215610757578081fd5b81518015158114610766578182fd5b9392505050565b6000602080838503121561077f578182fd5b823567ffffffffffffffff80821115610796578384fd5b818501915085601f8301126107a9578384fd5b8135818111156107bb576107bb610920565b6107cd601f8201601f191685016108cc565b915080825286848285010111156107e2578485fd5b80848401858401378101909201929092529392505050565b6000815180845260208085019450808401835b838110156108325781516001600160a01b03168752958201959082019060010161080d565b509495945050505050565b60008251815b8181101561085d5760208186018101518583015201610843565b8181111561086b5782828501525b509190910192915050565b82815260406020820152600061088f60408301846107fa565b949350505050565b8481526080602082015260006108b060808301866107fa565b6001600160a01b03949094166040830152506060015292915050565b604051601f8201601f1916810167ffffffffffffffff811182821017156108f5576108f5610920565b604052919050565b60008282101561091b57634e487b7160e01b81526011600452602481fd5b500390565b634e487b7160e01b600052604160045260246000fdfea2646970667358221220a411e20f0eb7622bb962f5b696a429fc1a1bb6049ccda738b3fd0d5da6bbfbaa64736f6c63430008040033",
  "devdoc": {
    "kind": "dev",
    "methods": {},
    "version": 1
  },
  "userdoc": {
    "kind": "user",
    "methods": {},
    "version": 1
  },
  "storageLayout": {
    "storage": [
      {
        "astId": 5244,
        "contract": "contracts/test/Swapper.sol:Swapper",
        "label": "ubeswapRouterAddress",
        "offset": 0,
        "slot": "0",
        "type": "t_address"
      },
      {
        "astId": 5248,
        "contract": "contracts/test/Swapper.sol:Swapper",
        "label": "tokenAddresses",
        "offset": 0,
        "slot": "1",
        "type": "t_mapping(t_string_memory_ptr,t_address)"
      }
    ],
    "types": {
      "t_address": {
        "encoding": "inplace",
        "label": "address",
        "numberOfBytes": "20"
      },
      "t_mapping(t_string_memory_ptr,t_address)": {
        "encoding": "mapping",
        "key": "t_string_memory_ptr",
        "label": "mapping(string => address)",
        "numberOfBytes": "32",
        "value": "t_address"
      },
      "t_string_memory_ptr": {
        "encoding": "bytes",
        "label": "string",
        "numberOfBytes": "32"
      }
    }
  }
}